:020000040000FA
:100000000C947D000C94A5000C94A5000C94A50004
:100010000C94A5000C94A5000C94A5000C94A500CC
:100020000C94A5000C94A5000C94A5000C94A500BC
:100030000C94A5000C94A5000C94A5000C94A500AC
:100040000C94530E0C94A5000C94210E0C94FB0DF3
:100050000C94A5000C94A5000C94A5000C94A5008C
:100060000C94A5000C94A500546F6F446565700056
:100070004E6F4D656D6F727900496E76616C696483
:10008000496E70757400496E636F6D706C65746550
:10009000496E70757400456D707479496E70757431
:1000A000004F6B000000803FCDCCCC3D6F12833AF7
:1000B00095BFD6337D1D9026B3CE010CA1009600CE
:1000C0008600790070006800000020410000C842EE
:1000D00000401C4620BCBE4CCA1B0E5AAEC59D74C7
:1000E000CDCCCC3D0AD7233C17B7D13877CC2B32B7
:1000F0009595E6241FB14F0AED1111241FBECFEFD5
:10010000D8E0DEBFCDBF22E0AEEFB1E001C01D926E
:10011000A83AB207E1F711E0A0E0B1E0E2EFFCE2BB
:1001200002C005900D92AE3FB107D9F710E0CDE7C0
:10013000D0E004C02197FE010E947614CC37D1078D
:10014000C9F70E949D0E0C9477160C940000089538
:10015000AF92BF92CF92DF92EF92FF920F931F93D5
:10016000CF93DF936C017B018B01040F151FEB0113
:100170005E01AE18BF08C017D10759F06991D601CA
:10018000ED91FC910190F081E02DC6010995892B3C
:1001900079F7C501DF91CF911F910F91FF90EF90FB
:1001A000DF90CF90BF90AF900895FC01538D448DA8
:1001B000252F30E0842F90E0821B930B541710F012
:1001C000CF96089501970895FC01918D828D98171F
:1001D00061F0A28DAE0FBF2FB11D5D968C91928DF7
:1001E0009F5F9F73928F90E008958FEF9FEF089528
:1001F000FC01918D828D981731F0828DE80FF11DF1
:10020000858D90E008958FEF9FEF0895FC01918D0B
:10021000228D892F90E0805C9F4F821B91098F7304
:100220009927089587E092E00E94060121E0892B3A
:1002300009F420E0822F089580E090E0892B29F0D6
:100240000E94120181110C9400000895FC01A48DFC
:10025000A80FB92FB11DA35ABF4F2C91848D90E0E8
:1002600001968F739927848FA689B7892C93A089CB
:10027000B1898C91837080648C93938D848D981355
:1002800006C00288F389E02D80818F7D80830895E8
:10029000EF92FF920F931F93CF93DF93EC0181E0D6
:1002A000888F9B8D8C8D98131AC0E889F98980817D
:1002B00085FF15C09FB7F894EE89FF896083E889B0
:1002C000F98980818370806480839FBF81E090E0A2
:1002D000DF91CF911F910F91FF90EF900895F62E2F
:1002E0000B8D10E00F5F1F4F0F731127E02E8C8DC9
:1002F0008E110CC00FB607FCFACFE889F98980810E
:1003000085FFF5CFCE010E942601F1CFEB8DEC0FDA
:10031000FD2FF11DE35AFF4FF0829FB7F8940B8F2A
:10032000EA89FB8980818062CFCFCF93DF93EC0194
:10033000888D8823B9F0AA89BB89E889F9898C91CD
:1003400085FD03C0808186FD0DC00FB607FCF7CF89
:100350008C9185FFF2CF808185FFEDCFCE010E9489
:100360002601E9CFDF91CF9108953FB7F8948091AE
:10037000030290910402A0910502B091060226B5F5
:10038000A89B05C02F3F19F00196A11DB11D3FBFCD
:10039000BA2FA92F982F8827BC01CD01620F711D9C
:1003A000811D911D42E0660F771F881F991F4A9596
:1003B000D1F708959C01FB01309741F0948190782A
:1003C000946094833183208381E0089580E00895D0
:1003D00080339CF08A3324F08F3524F08B3724F45B
:1003E00081E0089581344CF08B35D4F393ED980F70
:1003F00081E09230B0F380E008958B32B9F7F0CF0E
:10040000FC018685811114C0A185B2858385948500
:100410002FEF3FEFA817B90730F4CD01019692876F
:1004200081872C9130E037FD20E0258781E08687A9
:10043000858508951F93CF93DF93EC01162F0E94BB
:100440000002811306C01E8681E0DF91CF911F91CB
:10045000089580E0FACFCF93DF93EC01CE010E94A4
:1004600000028B303CF489304CF4882349F081E061
:10047000888710C08D3011F08032C9F71E86EECF0C
:10048000888581110AC081E090E0CF5ADF4F9983BF
:10049000888380E0DF91CF91089582E090E0F5CFEE
:1004A000CF93DF93DC01ED91FC91119712962D9182
:1004B0003C91E217F307B8F4C62FD72FDF018991DB
:1004C000AD014F5F5F4F9C91891307C0DA01811125
:1004D000F6CFCF01DF91CF910895FD018191DF012A
:1004E0008111FBCFE6CFF0E0E0E0F3CFFC018281A9
:1004F00093810097C1F0248135814681578124176B
:10050000350740F0138212820190F081E02D81E0E6
:1005100080870895A9014F5F5F4F55834483820F01
:10052000931FFC01608308959F92AF92BF92CF9278
:10053000DF92EF92FF920F931F93CF93DF9300D040
:1005400000D01F92CDB7DEB78C010E940002D82EDA
:10055000F8011686F12CE12C70EFC72EC8010E941D
:100560000002F8011686D81609F4C1C0811119C01D
:10057000F801EF5AFF4F82E090E09183808380E0A2
:100580000F900F900F900F900F90DF91CF911F91D0
:100590000F91FF90EF90DF90CF90BF90AF909F9022
:1005A00008958C3509F09EC0C8010E94000288237E
:1005B000F9F2E8E1F1E0853709F088C0F801168624
:1005C00064E0962EB12CA12CC8010E940002882361
:1005D00079F281344CF48053803148F0F801EF5ABD
:1005E000FF4F83E090E0C9CF8F7D8753F5CF54E074
:1005F000AA0CBB1C5A95E1F7A82AF80116869A9412
:100600009110E2CFC501985D8115944020F47501E9
:1006100023E0F222A3CFC5019C5D8115944008F52B
:10062000F3E0BF22C701982F8827990F990F8A29D5
:100630009B29B0E0A0E01196198280389105A105B0
:10064000B10598F48A835E0123E0A20EB11CF50186
:1006500062915F01662309F481CFC8010E9476028E
:10066000F6CFC501B0E0A0E0E7CF282F2F732068B8
:100670002A8336E0B695A795979587953A95D1F751
:100680008032910538F4806C8B835E0184E0A80E83
:10069000B11CDDCF282F2F7320682B8326E0969581
:1006A00087952A95E1F78031910538F4806E8C8327
:1006B0005E01E5E0AE0EB11CCACF80688C83CD82AE
:1006C0005E01F6E0AF0EB11CC2CF32969081992345
:1006D00009F484CF8913F9CF8181882309F47ECF6F
:1006E000F8011686682FC8010E94760237CF60E0B5
:1006F000C8010E947602F80182819381892B29F436
:10070000EF5AFF4F84E090E038CF81E039CFCF93AC
:10071000DF93DC01EB01EC81FD818A819B810896EE
:10072000E817F90740F481E08887F0E0E0E0CF01C6
:10073000DF91CF9108953897FD83EC833097B9F31B
:100740001296CD91DC911397209791F0CF018C1BDD
:100750009D0B23E0959587952A95E1F78D83139658
:10076000FC93EE9312971582148217821682DFCFC4
:100770001196FC93EE93F3CFFC012581222339F0EF
:10078000F8E02F0290011124820F931F089590E04A
:1007900080E00895EF92FF920F931F93CF93DF9322
:1007A0006115710519F17B018C01FC01C081D181BA
:1007B000209731F0CE010E94BC03E816F906E9F457
:1007C000C7010E94BC032097D1F020E0009741F0C0
:1007D0009C012C1B3D0B43E0359527954A95E1F78D
:1007E0002D83892B19F4F801D383C283DF91CF9134
:1007F0001F910F91FF90EF900895EC01D9CFF80170
:1008000091838083EECF0F931F93CF93DF93EC01FF
:100810008B01BA010E948703FC01892B61F470E00F
:1008200060E0CE010E94CA0380E090E0DF91CF91AA
:100830001F910F91089584818F7784831783068396
:10084000CF01F4CFCF93DF93EC018CE291E00E94D3
:100850007C149C01245D3E4F009711F430E020E0B1
:100860009A8389839C838B833E832D8338872F8350
:1008700019868E8580788E87DF91CF91089542E02A
:1008800050E069E271E087E092E00C94A800CF9319
:10089000DF93FC01448155816081718187E092E0A2
:1008A0000E94A800EC010E943F048C0F9D1FDF9165
:1008B000CF910895CF93DF93EC01888199810097C0
:1008C00011F00E941815198218821D821C821B8249
:1008D0001A82DF91CF910895FC0180819181009768
:1008E00011F00C9418150895FC01818192810097F4
:1008F00011F00C94181508950F931F93CF93DF9365
:10090000EC0188819981009759F02A813B81261753
:10091000370730F081E0DF91CF911F910F9108955B
:100920008B016F5F7F4F0E94A115009759F099834B
:1009300088831B830A832C813D81232B59F7FC017B
:100940001082E8CF80E0E7CFEF92FF920F931F93E2
:10095000CF93DF936115710541F480E0DF91CF9172
:100960001F910F91FF90EF90089541155105B1F03F
:100970007B01EC010C811D81040F151FB8010E9441
:100980007C04882351F3288139818C819D81B701B2
:10099000820F931F0E9470161D830C8381E0DECFAF
:1009A000CF93DF93EC01EAA1FBA1E80FF91F1282BC
:1009B000BC016E5F7F4F61F0FB0101900020E9F701
:1009C0003197AF01461B570B888199810E94A4047F
:1009D0001BA21AA2DF91CF910895CF93DF93EC0170
:1009E0008AA19BA19C012F5F3F4F3BA32AA3FE013D
:1009F000E80FF91F62830296809718F0CE010E94DB
:100A0000D0048CA19DA101969DA38CA3DF91CF91D1
:100A10000895EF92FF920F931F93CF93DF93EC0112
:100A20007B0162E20E94ED048701F80161918F0170
:100A3000662391F0E8E1F1E0F280FF2049F0329680
:100A400081816813F9CF6CE5CE010E94ED046F2D12
:100A5000CE010E94ED04E9CF62E2CE01DF91CF9199
:100A60001F910F91FF90EF900C94ED04CF92DF92C5
:100A7000EF92FF920F931F93CF93DF93EC016A01E4
:100A80008B017B01E40EF51E0E151F05A9F0F80180
:100A900021918F018AA19BA1AC014F5F5F4F5BA3A6
:100AA0004AA3FE01E80FF91F22830296809760F3A4
:100AB000CE010E94D004E8CF4CA15DA14C0D5D1D7C
:100AC0005DA34CA3DF91CF911F910F91FF90EF9009
:100AD000DF90CF9008958F929F92AF92BF92CF9266
:100AE000DF92EF92FF920F931F93CF93DF93CDB7D7
:100AF000DEB766970FB6F894DEBF0FBECDBF6C01B0
:100B00008E01095E1F4F78018AE0882E912CA12C5E
:100B1000B12CCB01BA01A50194010E945414942F69
:100B2000852F605DF80162938F01A901692F782FED
:100B3000411551056105710561F7A7014E1B5F0B5A
:100B4000BF01C6010E94360566960FB6F894DEBF57
:100B50000FBECDBFDF91CF911F910F91FF90EF900E
:100B6000DF90CF90BF90AF909F908F900895FB0142
:100B700001900020E9F73197AF01461B570B0C9409
:100B800036052F923F924F925F926F927F928F9293
:100B90009F92AF92BF92CF92DF92EF92FF920F930C
:100BA0001F93CF93DF93CDB7DEB76C970FB6F89452
:100BB000DEBF0FBECDBF8C011B01DC0114968C91F2
:100BC00014978F77863009F474C278F48230B0F0CD
:100BD000843008F04CC212964D915C9113976D9140
:100BE0007C91C1010E94360526C28C3069F160F407
:100BF000883009F459C28A3009F43FC26CE271E0CE
:100C0000C1010E94B705E5C1803209F4ECC180340E
:100C1000A9F76BE5C1010E94ED04F8010081118183
:100C20000115110509F4DAC1B101C8010E94C1051D
:100C3000C8010E94BC038C01892B09F4CFC16CE26E
:100C4000C1010E94ED04ECCFF801C080D180E280A8
:100C5000F380A7019601C701B6010E942A128111F3
:100C6000CDCF20E030E0A901C701B6010E942A12D1
:100C7000882379F0A7019601C701B6010E94A0134D
:100C80009B01AC01C701B6010E942A12882309F416
:100C9000B5CF20E030E0A901C701B6010E942A12B9
:100CA00087FF08C06DE2C1010E94ED04F7FAF094DD
:100CB000F7F8F09420E836E948E15BE4C701B601B3
:100CC0000E943B1487FD81C074E1A72EB12C00E285
:100CD00010E0188E1F8AF501E853FF4F25913591DA
:100CE00045915491C701B6010E943B1487FD13C082
:100CF000F501E052FF4F2591359145915491C7017F
:100D0000B6010E9490126B017C012F89388D200F53
:100D1000311F388F2F8B1595079534E0A31AB10832
:100D20008CEFA8168FEFB806B1F655245A9420E040
:100D300030E0A901C701B6010E943B1418160CF05F
:100D40004BC02CEA35EC47E257E3C701B6010E94DD
:100D50002A1218160CF440C0A52DB4E0AB02C00155
:100D60001124912C812CFC01EC55FF4F3F019C017B
:100D700028533F4F59013FEF531671F1F301E80D2E
:100D8000F91D6591759185919491A70196010E9435
:100D90003B1418169CF4F501E80DF91D25913591C9
:100DA00045915491C701B6010E9490126B017C01DC
:100DB0008F89988D801B910B988F8F8B1595079538
:100DC0005A9494E0891A9108D6CF00E210E055E0D9
:100DD000552E188E1F8AABCFC701B6010E940C1486
:100DE0004B015C012B013C0106E080E492E4AFE0A2
:100DF000B0E0898F9A8FAB8FBC8F102F01509AE093
:100E00004916510461047104C8F0698D7A8D8B8D87
:100E10009C8D2AE030E040E050E00E945414298F7D
:100E20003A8F4B8F5C8FC301B2012AE030E040E083
:100E300050E00E94541429013A01DFCFC501B401EA
:100E40000E942F129B01AC01C701B6010E949F13A3
:100E50006B017C01698D7A8D8B8D9C8D0E942F1288
:100E60009B01AC01C701B6010E9490122B013C010D
:100E70000E940C146B017C010E942F129B01AC019B
:100E8000C301B2010E949F139B01AC010E94A013F9
:100E90000E940C14C60ED71EE81EF91E898D9A8D6D
:100EA000AB8DBC8DC816D906EA06FB06D8F09FEFBD
:100EB000891A990AA90AB90AAF89B88DAB2B39F1F9
:100EC000BAE08B169104A104B10408F1EF89F88D02
:100ED0003196F88FEF8BC12CD12C7601812C912C7F
:100EE000540183942AE0422E512C612C712CC701AD
:100EF000B601A30192010E945414672B682B692B41
:100F000051F4111644F469017A011150F0CFC12C4B
:100F1000D12C7601E7CFB501A401C1010E946B0578
:100F2000112371F14E01F1E18F0E911C012F54013B
:100F30009AE0492E512C612C712C015068F0C701A8
:100F4000B601A30192010E945414605DD4016E9316
:100F50004D0169017A01F1CF812F90E0BC016095CC
:100F60007095F501E81BF90B31978EE280834427D9
:100F70005527461B570B6A0D7B1DC1010E94360584
:100F8000EF89F88DEF2B29F165E6C1010E94ED0490
:100F90000F89188D17FF07C06DE2C1010E94ED0493
:100FA000119501951109FE0177969F018AE0E82EBF
:100FB000F12CC801B7010E944014805D82938B011F
:100FC000672BB9F7A9014E1B5F0BBF01C1010E943E
:100FD0003605D10194968D919C9130C06DE5C1018B
:100FE0000E94ED04F6CF6BE7C1010E94ED04F80109
:100FF0000081118101151105D1F0D80116966D916E
:101000007C91C1010E9409056AE3C1010E94ED04BF
:10101000B101C8010E94C105C8010E94BC038C0136
:10102000892B29F06CE2C1010E94ED04E3CF6DE74A
:10103000C1010E94ED04F10184A195A16C960FB647
:10104000F894DEBF0FBECDBFDF91CF911F910F91FE
:10105000FF90EF90DF90CF90BF90AF909F908F90D8
:101060007F906F905F904F903F902F9008956D917B
:101070007C91C1010E940905DECFCD90DD90ED90FD
:10108000FC90B701A601F7FE0BC06DE2C1010E9402
:10109000ED0444275527BA014C195D096E097F09F3
:1010A000C1010E946B05C7CF4D915D916D917C91FF
:1010B000F7CF8C9161E371E0811102C066E371E0CA
:1010C000C1010E94B705B7CFCF93DF93CDB7DEB78D
:1010D000A4970FB6F894DEBF0FBECDBF24E2FB018C
:1010E000DE01119601900D922A95E1F724E2FE01AE
:1010F0003196DC0101900D922A95E1F7FC0115A2D1
:1011000014A2CE0101960E94D004A4960FB6F894C2
:10111000DEBF0FBECDBFDF91CF910895EF92FF925A
:101120000F931F93CF93DF93EC017B018A01BA01E8
:101130000E947C0481110BC0CE010E945A04CE0192
:10114000DF91CF911F910F91FF90EF9008951D8334
:101150000C83B701888199810E947016F0CFFC0141
:10116000118210821382128215821482FB01019077
:101170000020E9F73197AF01461B570B0C948E08FE
:101180000F931F93CF93DF93CDB7DEB7C459D10927
:101190000FB6F894DEBF0FBECDBF8C019B01009748
:1011A00011F1FC0194819F7794509230E0F46081BA
:1011B000718161157105B9F0FB0101900020E9F71B
:1011C0003197AF01461B570BC9010E948E08CC56C0
:1011D000DF4F0FB6F894DEBF0FBECDBFDF91CF91CA
:1011E0001F910F910895E3963FAF2EAFE397CD5631
:1011F000DF4F19821882C359D04084E2FE01EF58B4
:10120000FF4FDE01A35BBF4F01900D928A95E1F77E
:1012100084E2FE01E35BFF4FDE01999601900D929F
:101220008A95E1F7BE01675D7F4FCE0101960E946E
:101230006408CE0189960E94D00401151105A9F019
:10124000BE016F5F7F4FC8010E94C105CE010196AC
:101250000E94D004CE01835B9F4F0E94D004CE0138
:101260008F589F4F0E94D004B2CF6CE271E0CE0144
:1012700001960E94B705EACF0F931F93CF93DF9398
:101280008B01EC01892BA1F06E817F8160177107C2
:1012900079F00115110541F06115710529F0C801BA
:1012A0000E946716892B21F0CE010E94BC03E9CF72
:1012B000CE01DF91CF911F910F9108954F925F92D0
:1012C0006F927F92BF92CF92DF92EF92FF920F9335
:1012D0001F93CF93DF93EC018B01E42E0E942B022E
:1012E000F82E811110C0F12C8F2DDF91CF911F911D
:1012F0000F91FF90EF90DF90CF90BF907F906F9015
:101300005F904F900895CE010E940002873209F449
:1013100024C10CF5823209F420C1CE010E940002E2
:10132000B82E6E01F1E1CF0ED11CE12C36018B2DD0
:101330000E94E801882309F443C12FE3E21609F46F
:101340003FC11E86E394F601B1926F01CE010E9467
:101350000002B82EECCF8B3509F455C08B37E9F677
:10136000F8018481807880628483118210821382E4
:101370001282EE2009F452C01E86CE010E942B027A
:10138000882309F4B0CF6DE7CE010E941A028111C3
:10139000ABCFEA94E881F981828193819B838A8330
:1013A0008481958122813381821B930B9F838E835D
:1013B0001D821C82CE010E940002873209F46EC099
:1013C000823209F46BC0CE010E940002D82E0E9426
:1013D000E801882309F45DC01E866D2DCE010E94B0
:1013E0007602CE010E940002D82E0E94E8018111EF
:1013F000F3CF60E0CE010E9476028A819B81892B27
:1014000009F052C027C0F801848180788064848309
:101410001182108213821282E11007C0CF5ADF4F6F
:1014200085E090E0998388835ECF1E86CE010E947E
:101430002B02882309F457CF6DE5CE010E941A02D2
:10144000811152CFEA946F857889C8010E94870381
:10145000009729F4CF5ADF4F84E090E0E3CF4E2D80
:10146000BC01CE010E945E09882309F43CCFCE0165
:101470000E942B02882309F436CF6DE5CE010E942D
:101480001A02811131CF6CE2CE010E941A02811141
:10149000DACFCF5ADF4F83E090E0C4CFCE010E9475
:1014A0009402882309F41FCFCE010E942B028823C7
:1014B00009F419CF6AE3CE010E941A02882349F386
:1014C0006A817B81F801808191810E943C09BC0185
:1014D000892B19F548805980F20162807380B3012D
:1014E000C2010E9450026C01892B41F48C819D81C4
:1014F000860D971DF2019383828363016F8578893E
:10150000C8010E948703FC01892B09F4A3CF8481C1
:1015100080688483D782C682BF014E2DCE010E948F
:101520005E09882309F4DFCECE010E942B028823B6
:1015300009F4D9CE6DE7CE010E941A028111D4CEF2
:101540006CE2CE010E941A02882309F4A2CFCE01D8
:101550000E942B0281111ECFC6CEE881F9818281C3
:1015600093819B838A838481958122813381821B2D
:10157000930B9F838E831D821C82CE010E94940256
:10158000F82E882309F4AFCE68807980F301C280F9
:10159000D380B601C3010E9450029C01892B41F403
:1015A0008C819D818C0D9D1DF30193838283960117
:1015B000F80194819078956094833183208394CE50
:1015C000FE01EE0DF11D118A8989843781F4F8013D
:1015D000848180788660848381E08083F4E0EF16E4
:1015E00009F482CECF5ADF4F82E090E01BCF8636DF
:1015F00041F4F80184818078866084831082F5E06C
:10160000EECF8E3621F424E0E212ECCF6DCE8B3299
:10161000D9F1F3018D32D1F5FE017296BF2C808194
:1016200090ED980F9A3018F08E3209F032CF6F019A
:1016300060E070E0CB01F6012191A0ED4A2E420E50
:1016400039E0341528F16A3949E97407840749E11A
:10165000940740F5AAE0B0E09B01AC010E944E1354
:10166000512C712C612CA30192012095309540954D
:1016700050952617370748075907A0F0640D751DC8
:10168000861D971D6F01D7CFFE017296B12CC7CF73
:10169000211108C0BB2071F161307105810550E84E
:1016A0009507A0F0E12CEAE04E2E512C612C712C14
:1016B00061157105F0E88F07910530F1A3019201E2
:1016C0000E945414CA01B901E394F2CFF8012481B5
:1016D00020782A6024839B01AC0188279927DC01AC
:1016E000821B930BA40BB50B80839183A283B383DE
:1016F000FB2CFACDF80124812078286024836083B4
:10170000718382839383F0CDD601F60121916F011D
:1017100030ED320F3A3010F4E394F6CF2E32F1F47C
:10172000FD013196DF0131962C9150EDD52ED20E70
:1017300029E02D1598F06C3C3CEC73073CE08307E6
:10174000910580F7AAE0B0E09B01AC010E944E1326
:101750006D0D711D811D911DEA94E4CF2C912F7D9B
:10176000253409F08CC011962C9111972D32D9F5A2
:1017700012967F2CFD0130E020E0CE2C0E2C000CC8
:10178000DD084AE0542EDF01619040ED460D4A30FD
:1017900008F043C0529EA001539E500D1124262DE7
:1017A000660C330B20533109240F351FA9014C0D52
:1017B0005D1D473251053CF3F80184817720D1F05B
:1017C00040E050E060E070E8B11003C040E050E05D
:1017D000BA0180788C60F8018483408351836283EE
:1017E0007383F72C81CD2B3219F01196712CC2CF57
:1017F0001296FCCF40E050E060E87FEFB11004C0EB
:1018000040E050E060E87FE780788C60F8018483F6
:10181000408351836283738367CD772019F03195BC
:10182000219531094C91411134CEE901CE0DD11DE4
:10183000E7FCDA950E942F121C161D061CF5E12C00
:10184000C0FF0CC024E0E29EF0011124E853FF4FDA
:1018500025913591459154910E949012D595C79547
:10186000E394209769F7B1109058F801248120780B
:101870002C602483608371838283938335CD30E031
:1018800020E0D0CFD195C195D109E12C209759F313
:10189000C0FF0CC044E0E49EF0011124E052FF4F71
:1018A00025913591459154910E949012D595C795F7
:1018B000E394ECCFEF92FF920F931F93CF93DF93BC
:1018C000EC018C81982F9F7739F4807880628C832B
:1018D000198218821B821A828C8185FF16C06115BD
:1018E000710599F07A018B01888199810E943C09E8
:1018F000009769F4A701B801CE01DF91CF911F9144
:101900000F91FF90EF900C94030480E090E0DF9142
:10191000CF911F910F91FF90EF900895009711F0D4
:101920000C945A0C90E080E00895FC01248125FF7E
:1019300004C0808191810C943C0990E080E008957E
:10194000CF92DF92EF92FF920F931F93CF93DF938B
:10195000FB01C080D180C114D104E9F07C01B60143
:101960000E945002EC01892B31F5F6010190002014
:10197000E9F731978F010C191D09F701C281D38155
:10198000C80101968C0F9D1F2481358128173907C6
:1019900028F481E08087D0E0C0E00DC0938382838B
:1019A000209749F0A801B601CE010E945E16FE0103
:1019B000E00FF11F1082CE01DF91CF911F910F91A7
:1019C000FF90EF90DF90CF9008958F929F92AF920B
:1019D000BF92CF92DF92EF92FF920F931F93CF931C
:1019E000DF9300D0CDB7DEB78C017A01FB01948183
:1019F0009F779530B9F198F4933009F454C0F80109
:101A000084818078982B9483FB0180819181A281CD
:101A1000B381F80180839183A283B3832DC0F80141
:101A200084819032E1F080788064903441F784833F
:101A30001182108213821282A701C8010E948D0DAB
:101A40000F900F90DF91CF911F910F91FF90EF902A
:101A5000DF90CF90BF90AF909F908F900895807847
:101A60008062E5CF808191819A838983892B31F4CB
:101A7000F80184818078848381E0E2CFBE016F5FCA
:101A80007F4FCA010E94A00C9C01F80194819078BC
:101A90002115310519F4948380E0D2CF95609483A9
:101AA00031832083E9CFA280B3808080918081142C
:101AB000910429F4F801848180788483EDCFB40106
:101AC000CA010E9450026C01892BE9F4F701C2801F
:101AD000D380C50101968C0D9D1D24813581281769
:101AE000390718F481E08087E5CF93838283C1149E
:101AF000D10401F3A501B401C6010E945E16F601EE
:101B0000EA0DFB1D1082F801848180788360848354
:101B1000D182C082B382A282AFCF8F929F92AF92C6
:101B2000BF92CF92DF92EF92FF920F931F93CF93CA
:101B3000DF9300D0CDB7DEB76C015A01FC011182F2
:101B4000108213821282FB01E080F180E114F10423
:101B500009F44FC0F701868097808114910409F43D
:101B600043C0848187FF38C0B501C6010E94870346
:101B70008C01892BE9F09A828982BE016F5F7F4FC9
:101B8000C5010E94A00C9C01892B91F0F801948161
:101B90009068948337832683C801A501B7010E940A
:101BA000E50C882349F0C7010E94BC037C01CECF1D
:101BB000B801C6010E94CA0380E00F900F90DF9128
:101BC000CF911F910F91FF90EF90DF90CF90BF903A
:101BD000AF909F908F900895A501B401C6010E9417
:101BE00003040097D1F6E8CFB501C6010E94870330
:101BF000F8CF81E0E2CF1F920F920FB60F9211241F
:101C00002F933F934F935F936F937F938F939F9304
:101C1000AF93BF93EF93FF9387E092E00E9426017A
:101C2000FF91EF91BF91AF919F918F917F916F91B4
:101C30005F914F913F912F910F900FBE0F901F908A
:101C400018951F920F920FB60F9211242F938F9316
:101C50009F93EF93FF93E0911702F0911802808118
:101C6000E0911D02F0911E0282FD1BC090818091C7
:101C700020028F5F8F7320912102821741F0E09143
:101C80002002F0E0E95FFD4F958F80932002FF91E5
:101C9000EF919F918F912F910F900FBE0F901F90FA
:101CA00018958081F4CF1F920F920FB60F921124D6
:101CB0002F933F938F939F93AF93BF938091FF0197
:101CC00090910002A0910102B09102023091FE01B8
:101CD00023E0230F2D3758F50196A11DB11D209348
:101CE000FE018093FF0190930002A0930102B09344
:101CF00002028091030290910402A0910502B0912A
:101D000006020196A11DB11D809303029093040267
:101D1000A0930502B0930602BF91AF919F918F915E
:101D20003F912F910F900FBE0F901F90189526E8AE
:101D3000230F0296A11DB11DD2CFCF93DF93CDB754
:101D4000DEB7C451D1400FB6F894DEBF0FBECDBF91
:101D5000789484B5826084BD84B5816084BD85B586
:101D6000826085BD85B5816085BD80916E00816092
:101D700080936E0010928100809181008260809338
:101D8000810080918100816080938100809180003A
:101D90008160809380008091B10084608093B10065
:101DA0008091B00081608093B00080917A0084605F
:101DB00080937A0080917A00826080937A0080918B
:101DC0007A00816080937A0080917A0080688093A5
:101DD0007A001092C100E0911702F091180282E09F
:101DE0008083E0911302F09114021082E0911502B9
:101DF000F09116028FEC808310921F02E0911B027B
:101E0000F0911C0286E08083E0911902F0911A02A1
:101E1000808180618083E0911902F0911A028081B3
:101E200088608083E0911902F0911A0280818068B5
:101E30008083E0911902F0911A0280818F7D808366
:101E40005EEDE52EF12CEC0EFD1E2FEFE21AF20AEC
:101E50000FEC10E00C0F1D1F065F1F4F60ECC62E2D
:101E6000D12CCC0EDD1E8FEFC81AD80A6CE371E0BE
:101E7000CE01815F9E4F0E94AF08EA961FAE1EAE54
:101E8000EA97EC961FAE1EAEEC97EE961FAE1EAE16
:101E9000EE97C15FDE4F68817981CF50D1406115E7
:101EA000710559F0CD5EDE4F48815981C351D14053
:101EB000CE0188589F4F0E948E08CE0182529F4FBC
:101EC0000E942204EA964EAD5FADEA97EE968EAD83
:101ED0009FADEE97840F951FC152DF4F2881398146
:101EE000CF5DD040CF51DF4F39832883C15ED040D2
:101EF000CB51DF4F28813981C55ED040CD51DF4FB6
:101F000039832883C35ED040C951DF4F1882C75E32
:101F1000D040C451DF4F2881CC5ED0402078C451DE
:101F2000DF4F2883CC5ED040CB50DF4FF982E88270
:101F3000C55FD04028E0FE01EB50FF4FDE01A3510A
:101F4000BF4F01900D922A95E1F728E0FE01E35181
:101F5000FF4FDE01119601900D922A95E1F7198647
:101F60005B874A879D878C871F86F98AE88A6496F3
:101F70001FAE1EAE64974AE06EED70E06C0F7D1FE1
:101F8000665F7F4FCE0101960E945E096496EEADBA
:101F9000FFAD6497309769F48E85882309F44CC0AF
:101FA000C451DF4F8881CC5ED04083FF45C0E3E061
:101FB000F0E0EE0FFF1FE454FF4FA590B4901A829B
:101FC00019821C821B821E821D82A114B10479F029
:101FD000C5010E9421124C01BC01CE0101960E9454
:101FE0007C048111F2C1CE0101960E945A046BE972
:101FF00071E0CE018C5A9F4F0E94AF084D815E81E7
:1020000069817A81CE018C5A9F4F0E94A40481116C
:1020100005C0CE018C5A9F4F0E945A04CE018C5AA3
:102020009F4F0E944704CE018C5A9F4F0E946C0420
:10203000CE0101960E946C04CE0188589F4F0E94E9
:102040006C0465EB71E03EEDA32EB12CAC0EBD1E11
:10205000EAE0AE0EB11CC5010E94950C4C0168E28D
:1020600071E0CE01875F9E4F0E94AF08BE01675F9F
:102070007E4FC4010E94C0086CEB71E0C5010E9454
:10208000950C5C01009729F061EC71E00E94950CC1
:102090005C0168E271E0CE018D5F9E4F0E94AF0847
:1020A000BE016D5F7E4FC5010E94C008CE01875FF3
:1020B0009E4F0E944704CE018D5F9E4F0E944704B1
:1020C00040E150E066EC71E087E092E00E94A800F9
:1020D0000E943F040E94B5012B013C0124EF822E97
:1020E00099249394A12CB12C0E94B501641975090F
:1020F00086099709683E734081059105A8F3F1E0D0
:102100008F1A9108A108B10828EE420E23E0521E52
:10211000611C711C81149104A104B10429F7CE0142
:1021200081539F4F0E9422049FECA92EB12CAC0E2C
:10213000BD1EFFEFAF1ABF0AA50167ED71E0C80130
:102140000E945A0CBC018BED91E00E94DA01A501BE
:1021500061EE71E0C8010E945A0CBC0187EE91E06B
:102160000E94DA01A5016DEE71E0C8010E945A0CCF
:10217000A50162EF71E00E948E0CBC0183EF91E03B
:102180000E94DA01A5016DEE71E0C8010E945A0CAF
:10219000A50165EF71E00E948E0CBC0183EF91E018
:1021A0000E94DA01A5016DEE71E0C8010E945A0C8F
:1021B000A50168EF71E00E948E0C009721F0FC01F0
:1021C000248120782483CF53DF4F19821882C15C89
:1021D000D040CD53DF4F19821882C35CD040CB531F
:1021E000DF4F19821882C55CD040C953DF4F198276
:1021F0001882C75CD040C753DF4F1882C95CD040FB
:10220000C253DF4F8881CE5CD0408078C253DF4F0D
:102210008883CE5CD040CA52DF4FA880B980C65DAB
:10222000D040C053DF4F88819981C05DD040A81A4B
:10223000B90AD1F0CE0180549F4F0E947404C501A9
:102240000E947C14A80EB91E009711F4B12CA12C89
:10225000CF53DF4F99838883C15CD040C953DF4F90
:10226000B982A882C75CD040CF53DF4F8881998163
:10227000C15CD040CD53DF4F99838883C35CD0408D
:10228000C953DF4F88819981C75CD040CB53DF4F62
:1022900099838883C55CD040C753DF4F1882C95CDF
:1022A000D040C253DF4F8881CE5CD0408078C2538B
:1022B000DF4F8883CE5CD040A601B80180EC882E29
:1022C000912C8C0E9D1EFAE08F0E911CC4010E9471
:1022D000E50C5E012DEFA20EB11C68E271E0C501B4
:1022E0000E94AF08C456DF4FB982A882CC59D040B3
:1022F000C254DF4F19821882CE5BD04084E2FE01C7
:10230000E456FF4FDE01A858BF4F01900D928A9509
:10231000E1F784E2FE01E858FF4FDE01AC5ABF4FFF
:1023200001900D928A95E1F7BE016C5A7F4FCE0164
:1023300001960E946408CE018C5A9F4F0E94D004DF
:10234000BE016F5F7F4FC4010E94C105CE0101969F
:102350000E94D004CE0188589F4F0E94D004CE0125
:1023600084569F4F0E94D004CE0180549F4F0E94FC
:102370007404C5010E944704C5010E946C04CE018B
:1023800081539F4F0E947404CE018D5F9E4F0E9427
:102390006C04CE01875F9E4F0E946C04CE01825276
:1023A0009F4F0E947404CE01815F9E4F0E946C0477
:1023B00080E090E0892B09F459CD0E941201882316
:1023C00009F454CD0E94000051CD9E828D82B5014A
:1023D00089819A810E941A120ACEE7E0F2E0138204
:1023E000128288EE93E0A0E0B0E084839583A68318
:1023F000B7838AE091E09183808385EC90E09587B4
:10240000848784EC90E09787868780EC90E0918BBE
:10241000808B81EC90E0938B828B82EC90E0958BAB
:10242000848B86EC90E0978B868B118E128E138EA8
:10243000148E0895FB01DC0105900D920020E1F758
:102440000895FC0105900020E9F7809590958E0F86
:102450009F1F08950E946C1208F481E00895E8948B
:1024600009C097FB3EF490958095709561957F4FDC
:102470008F4F9F4F9923A9F0F92F96E9BB2793958A
:10248000F695879577956795B795F111F8CFFAF49A
:10249000BB0F11F460FF1BC06F5F7F4F8F4F9F4FCB
:1024A00016C0882311F096E911C0772321F09EE829
:1024B000872F762F05C0662371F096E8862F70E08F
:1024C00060E02AF09A95660F771F881FDAF7880F69
:1024D0009695879597F90895990F0008550FAA0BBF
:1024E000E0E8FEEF16161706E807F907C0F0121627
:1024F0001306E407F50798F0621B730B840B950B2A
:1025000039F40A2661F0232B242B252B21F408957E
:102510000A2609F4A140A6958FEF811D811D08951B
:102520000E94A3120C9414130E94061338F00E9408
:102530000D1320F0952311F00C94FD120C9403134D
:1025400011240C9448130E94251370F3959FC1F336
:10255000950F50E0551F629FF001729FBB27F00D51
:10256000B11D639FAA27F00DB11DAA1F649F6627A6
:10257000B00DA11D661F829F2227B00DA11D621FF5
:10258000739FB00DA11D621F839FA00D611D221FAF
:10259000749F3327A00D611D231F849F600D211D93
:1025A000822F762F6A2F11249F5750409AF0F1F016
:1025B00088234AF0EE0FFF1FBB1F661F771F881F7F
:1025C00091505040A9F79E3F510580F00C94FD12A8
:1025D0000C9448135F3FE4F3983ED4F386957795C7
:1025E0006795B795F795E7959F5FC1F7FE2B880F25
:1025F000911D9695879597F9089597F99F6780E8BB
:1026000070E060E008959FEF80EC089500240A9444
:102610001616170618060906089500240A941216BD
:102620001306140605060895092E0394000C11F4F0
:10263000882352F0BB0F40F4BF2B11F460FF04C09D
:102640006F5F7F4F8F4F9F4F089557FD9058440FF6
:10265000551F59F05F3F71F04795880F97FB991F01
:1026600061F09F3F79F087950895121613061406BE
:10267000551FF2CF4695F1DF08C01616170618064B
:10268000991FF1CF86957105610508940895E89426
:10269000BB2766277727CB0197F908950E949013EF
:1026A000A59F900DB49F900DA49F800D911D1124A6
:1026B00008952F923F924F925F926F927F928F92E6
:1026C0009F92AF92BF92CF92DF92EF92FF920F93C1
:1026D0001F93CF93DF93CDB7DEB7CA1BDB0B0FB6CB
:1026E000F894DEBF0FBECDBF09942A883988488888
:1026F0005F846E847D848C849B84AA84B984C8841E
:10270000DF80EE80FD800C811B81AA81B981CE0F14
:10271000D11D0FB6F894DEBF0FBECDBFED010895F9
:10272000A29FB001B39FC001A39F700D811D112412
:10273000911DB29F700D811D1124911D0895505857
:10274000BB27AA270E94B7130C9414130E940613E8
:1027500038F00E940D1320F039F49F3F19F426F44D
:102760000C9403130EF4E095E7FB0C94FD12E92F93
:102770000E94251358F3BA17620773078407950759
:1027800020F079F4A6F50C9447130EF4E0950B2E87
:10279000BA2FA02D0B01B90190010C01CA01A001B3
:1027A0001124FF27591B99F0593F50F4503E68F10E
:1027B0001A16F040A22F232F342F4427585FF3CF4F
:1027C000469537952795A795F0405395C9F77EF420
:1027D0001F16BA0B620B730B840BBAF09150A1F069
:1027E000FF0FBB1F661F771F881FC2F70EC0BA0FEF
:1027F000621F731F841F48F4879577956795B79577
:10280000F7959E3F08F0B0CF9395880F08F0992771
:10281000EE0F9795879508950E942D1388F09F5786
:1028200098F0B92F9927B751B0F0E1F0660F771FF4
:10283000881F991F1AF0BA95C9F714C0B13091F0EA
:102840000E944713B1E008950C944713672F782F27
:102850008827B85F39F0B93FCCF3869577956795AF
:10286000B395D9F73EF490958095709561957F4F1B
:102870008F4F9F4F08950E946C1208F48FEF0895B8
:10288000AA1BBB1B51E107C0AA1FBB1FA617B70796
:1028900010F0A61BB70B881F991F5A95A9F78095B2
:1028A0009095BC01CD010895A1E21A2EAA1BBB1B75
:1028B000FD010DC0AA1FBB1FEE1FFF1FA217B3070C
:1028C000E407F50720F0A21BB30BE40BF50B661F22
:1028D000771F881F991F1A9469F7609570958095E6
:1028E00090959B01AC01BD01CF010895EE0FFF1F34
:1028F0000590F491E02D09940F931F93CF93DF93EC
:102900008230910510F482E090E0E091A602F0910F
:10291000A70230E020E0B0E0A0E0309799F4211564
:10292000310509F44AC0281B390B24303105D8F58C
:102930008A819B816115710589F1FB0193838283F3
:10294000FE0111C04081518102811381481759074E
:10295000E0F04817590799F4109761F012960C931C
:10296000129713961C933296CF01DF91CF911F914E
:102970000F9108950093A6021093A702F4CF21159A
:10298000310551F04217530738F0A901DB019A01D4
:10299000BD01DF01F801C1CFEF01F9CF9093A7028C
:1029A0008093A602CDCFFE01E20FF31F8193919396
:1029B0002250310939832883D7CF2091A402309146
:1029C000A502232B41F420910201309103013093A1
:1029D000A5022093A402209100013091010121154C
:1029E000310541F42DB73EB74091040150910501E6
:1029F000241B350BE091A402F091A502E217F30726
:102A0000A0F42E1B3F0B2817390778F0AC014E5F5E
:102A10005F4F2417350748F04E0F5F1F5093A502F4
:102A20004093A402819391939FCFF0E0E0E09CCF8C
:102A3000CF93DF930097E9F0FC0132971382128263
:102A4000A091A602B091A702ED0130E020E010971E
:102A5000A1F420813181820F931F2091A402309133
:102A6000A5022817390709F061C0F093A502E09389
:102A7000A402DF91CF910895EA01CE17DF07E8F5B0
:102A80004A815B819E0141155105B1F7E901FB8344
:102A9000EA8349915991C40FD51FEC17FD0761F4E2
:102AA000808191810296840F951FE9019983888323
:102AB000828193819B838A83F0E0E0E012968D917E
:102AC0009C9113970097B9F52D913C911197CD01E9
:102AD0000296820F931F2091A4023091A50228171D
:102AE000390739F6309751F51092A7021092A602D5
:102AF000B093A502A093A402BCCFD383C28340812C
:102B00005181840F951FC817D90761F44E5F5F4F3D
:102B100088819981480F591F518340838A819B8105
:102B2000938382832115310509F0B0CFF093A7027A
:102B3000E093A6029ECFFD01DC01C0CF138212827A
:102B4000D7CFB0E0A0E0E7EAF5E10C945B138C018D
:102B5000009751F4CB010E947C148C01C801CDB7C1
:102B6000DEB7E0E10C947713FC01E60FF71F9C0140
:102B700022503109E217F30708F49DC0D901CD9125
:102B8000DC911197C617D70798F0C530D10530F3FF
:102B9000CE0104978617970708F3C61BD70B229719
:102BA000C193D1936D937C93CF010E941815D6CF1A
:102BB0005B01AC1ABD0A4C018C0E9D1EA091A602B1
:102BC000B091A702512C412CF12CE12C109731F53A
:102BD0008091A4029091A5028815990509F05CC026
:102BE0004616570608F058C08091000190910101E7
:102BF000009741F48DB79EB74091040150910501B3
:102C0000841B950BE817F90708F055C0F093A5024F
:102C1000E093A402F90171836083A0CF8D919C9110
:102C2000119712966C90129713967C901397A81593
:102C3000B90559F56C0142E0C40ED11CCA14DB047D
:102C400020F1AC014A195B09DA011296159780F060
:102C50006282738251834083D9016D937C93E11426
:102C6000F10471F0D7011396FC93EE93129776CF8F
:102C700022968C0F9D1FF90191838083F301EFCF82
:102C8000F093A702E093A60269CF4816590608F40C
:102C90002C017D01D3019ACFCB010E947C147C01D1
:102CA000009749F0AE01B8010E945E16C8010E946B
:102CB0001815870153CF10E000E050CFFB01DC0175
:102CC00002C001900D9241505040D8F70895FB0189
:102CD000DC018D91019080190110D9F3990B0895B1
:102CE000FB01DC0101900D920020E1F70895F894BA
:102CF000FFCF0000A8028000000000004801A800EB
:102D0000D50095010601E400F8002F2F22225C5C1B
:102D10006208660C6E0A720D7409000D0A006E7569
:102D20006C6C00747275650066616C7365007B2263
:102D300073656E736F72223A22677073222C22744D
:102D4000696D65223A313335313832343132302CC5
:102D50002264617461223A5B34382E37353630385C
:102D6000302C322E3330323033385D2C227573657F
:102D700072223A7B226E616D65223A225061756C37
:102D8000222C22616765223A31327D7D004A534F01
:102D90004E20646573657269616C697A652066614D
:102DA000696C65643A200073656E736F72007573A9
:102DB0006572006E616D65002D2D2D2D2D2D2D2D33
:102DC0002D2D2D2D2D2D2D2D006B65790076616C0F
:102DD00075650068656C6C6F00776F726C64006479
:102DE00061746100743100743200656D7074790033
:107E0000112484B714BE81FFF0D085E080938100F7
:107E100082E08093C00088E18093C10086E0809377
:107E2000C20080E18093C4008EE0C9D0259A86E02C
:107E300020E33CEF91E0309385002093840096BBD3
:107E4000B09BFECF1D9AA8958150A9F7CC24DD24C4
:107E500088248394B5E0AB2EA1E19A2EF3E0BF2EE7
:107E6000A2D0813461F49FD0082FAFD0023811F036
:107E7000013811F484E001C083E08DD089C08234E0
:107E800011F484E103C0853419F485E0A6D080C0E4
:107E9000853579F488D0E82EFF2485D0082F10E0AE
:107EA000102F00270E291F29000F111F8ED06801E7
:107EB0006FC0863521F484E090D080E0DECF843638
:107EC00009F040C070D06FD0082F6DD080E0C81688
:107ED00080E7D80618F4F601B7BEE895C0E0D1E017
:107EE00062D089930C17E1F7F0E0CF16F0E7DF06D8
:107EF00018F0F601B7BEE89568D007B600FCFDCFD4
:107F0000A601A0E0B1E02C9130E011968C91119780
:107F100090E0982F8827822B932B1296FA010C0160
:107F200087BEE89511244E5F5F4FF1E0A038BF0790
:107F300051F7F601A7BEE89507B600FCFDCF97BE46
:107F4000E89526C08437B1F42ED02DD0F82E2BD052
:107F50003CD0F601EF2C8F010F5F1F4F84911BD097
:107F6000EA94F801C1F70894C11CD11CFA94CF0C13
:107F7000D11C0EC0853739F428D08EE10CD085E9AC
:107F80000AD08FE07ACF813511F488E018D01DD067
:107F900080E101D065CF982F8091C00085FFFCCF94
:107FA0009093C60008958091C00087FFFCCF809118
:107FB000C00084FD01C0A8958091C6000895E0E648
:107FC000F0E098E1908380830895EDDF803219F02E
:107FD00088E0F5DFFFCF84E1DECF1F93182FE3DFCA
:107FE0001150E9F7F2DF1F91089580E0E8DFEE27F6
:047FF000FF270994CA
:027FFE00040479
:00000001FF
