:020000040000FA
:100000000C9463000C948B000C948B000C94E90509
:100010000C94E9050C94E9050C948B000C948B006E
:100020000C948B000C948B000C948B000C948B0024
:100030000C948B000C948B000C948B000C948B0014
:100040000C949F050C948B000C946D050C94470543
:100050000C948B000C948B000C948B000C948B00F4
:100060000C948B000C948B0000000008000201002F
:100070000003040700000000000000000000000072
:1000800023002600290000000000240027002A0089
:1000900000000000250028002B00040404040404D0
:1000A0000404020202020202030303030303010227
:1000B00004081020408001020408102001020408F6
:1000C0001020AD065F0A11241FBECFEFD8E0DEBFBF
:1000D000CDBF23E0A2E7B2E001C01D92AF37B20767
:1000E000E1F712E0A0E0B1E0E2E0FAE102C0059041
:1000F0000D92A237B107D9F710E0C2E6D0E004C0F4
:100100002197FE010E94FC0AC136D107C9F70E945F
:1001100096070C94F40C0C94000008950895DB01EC
:1001200014964D915C9115976D917C91DC01ED9148
:10013000FC910280F381E02D0994AF92BF92CF929F
:10014000DF92EF92FF920F931F93CF93DF936C0197
:100150007B018B01040F151FEB015E01AE18BF0878
:10016000C017D10759F06991D601ED91FC9101902A
:10017000F081E02DC6010995892B79F7C501DF9142
:10018000CF911F910F91FF90EF90DF90CF90BF9094
:10019000AF900895FC01538D448D252F30E0842FBE
:1001A00090E0821B930B541710F0CF96089501979F
:1001B0000895FC01918D828D981761F0A28DAE0F8C
:1001C000BF2FB11D5D968C91928D9F5F9F73928F13
:1001D00090E008958FEF9FEF0895FC01918D828D3F
:1001E000981731F0828DE80FF11D858D90E008950C
:1001F0008FEF9FEF0895FC01918D228D892F90E064
:10020000805C9F4F821B91098F73992708958FEB14
:1002100092E00E94FB0021E0892B09F420E0822F6C
:10022000089580E090E0892B29F00E940701811158
:100230000C9400000895FC01A48DA80FB92FB11DE6
:10024000A35ABF4F2C91848D90E001968F7399270C
:10025000848FA689B7892C93A089B1898C918370EA
:1002600080648C93938D848D981306C00288F389E3
:10027000E02D80818F7D80830895EF92FF920F9310
:100280001F93CF93DF93EC0181E0888F9B8D8C8D42
:1002900098131AC0E889F989808185FF15C09FB736
:1002A000F894EE89FF896083E889F98980818370F9
:1002B000806480839FBF81E090E0DF91CF911F91A8
:1002C0000F91FF90EF900895F62E0B8D10E00F5FC9
:1002D0001F4F0F731127E02E8C8D8E110CC00FB69F
:1002E00007FCFACFE889F989808185FFF5CFCE0137
:1002F0000E941B01F1CFEB8DEC0FFD2FF11DE35A96
:10030000FF4FF0829FB7F8940B8FEA89FB898081B9
:100310008062CFCFCF93DF93EC01888D8823B9F033
:10032000AA89BB89E889F9898C9185FD03C0808100
:1003300086FD0DC00FB607FCF7CF8C9185FFF2CF7D
:10034000808185FFEDCFCE010E941B01E9CFDF91B7
:10035000CF9108953FB7F8948091B3029091B40281
:10036000A091B502B091B60226B5A89B05C02F3F5B
:1003700019F00196A11DB11D3FBFBA2FA92F982FCB
:100380008827BC01CD01620F711D811D911D42E0C6
:10039000660F771F881F991F4A95D1F708958F928E
:1003A0009F92AF92BF92CF92DF92EF92FF924B015A
:1003B0005C010E94AA016B017C010E94AA016C19D8
:1003C0007D098E099F09683E734081059105A8F358
:1003D00021E0821A9108A108B10888EEC80E83E0D6
:1003E000D81EE11CF11C81149104A104B10429F769
:1003F000FF90EF90DF90CF90BF90AF909F908F9045
:1004000008952091B9023091BA022817390771F482
:100410009091B7028091B802981741F0E091B7022D
:10042000F0E0EE58FD4F808190E008958FEF9FEF50
:100430000895EF92FF920F931F93CF93DF93DC0108
:100440005C96ED90FC905D97E114F10479F481E005
:1004500090E013969C938E93129790E080E0DF914A
:10046000CF911F910F91FF90EF9008955196ED91CC
:10047000FC91529750968C915097982F90950FB76A
:100480005E962C915E97122F127021FD6095F89464
:100490002081112319F1282B2083E7012197F1F7FF
:1004A00028E0462F50E0308160FF1AC0382B30839F
:1004B000E7012197F1F7BA0175956795215089F702
:1004C000112381F08081892380830FBF5C968D91F9
:1004D0009C910197F1F781E090E0C1CF2923DCCF17
:1004E0003923E5CF9081892BEFCF2091B90230914C
:1004F000BA022817390771F48091B8022091B70227
:1005000090E0805C9F4F821B910960E470E00E9444
:10051000B20A089590E080E008952091B9023091E8
:10052000BA0228173907B9F49091B7028091B8023E
:10053000981789F0E091B702F0E0EE58FD4F808106
:100540002091B70230E02F5F3F4F2F733327209366
:10055000B70290E008958FEF9FEF08952FB7F894BA
:100560008091BB029091BC02A091BD02B091BE02ED
:100570002FBF8093640390936503A0936603B093A9
:1005800067038CE593E00E948D0297FF26C02FB78A
:10059000F8948091BB029091BC02A091BD02B091F1
:1005A000BE022FBF409164035091650360916603C2
:1005B00070916703841B950BA60BB70B40916003EA
:1005C00050916103609162037091630384179507F2
:1005D000A607B707B0F28FEF9FEF089590E080E095
:1005E00008958F929F92AF92BF92CF92DF92EF9237
:1005F000FF920F931F93CF93DF93FC010190002094
:10060000E9F731978F01081B190B7C01D0E0C0E09E
:10061000A9F430E020E081E0232B09F080E0DF91B5
:10062000CF911F910F91FF90EF90DF90CF90BF90EF
:10063000AF909F908F900895C1E0D0E00E94AE02ED
:1006400097FD3AC0F701EC0FFD1F2081022E000C30
:10065000330B8217930759F1209781F34F01AE01B5
:100660002197D4012E914D01022E000C330B281737
:10067000390719F0209799F7E1CF2097E9F2B701F0
:100680006F01CC1ADD0A30E020E0DB01AD90BD0146
:10069000D601BD906D01AB1005C02F5F3F4F2C17E9
:1006A0003D0798F3C217D307D1F6EA01C7CF2196C9
:1006B0000C171D0719F6ADCF2FEF3FEFACCFFB01A5
:1006C00001900020E9F73197AF01461B570BDC0181
:1006D000ED91FC910280F381E02D09940F931F931B
:1006E000CF93DF93EC010E945F038C0169ED71E011
:1006F000CE010E945F03800F911FDF91CF911F9168
:100700000F9108950F931F93CF93DF93EC010E94F5
:100710008F008C0169ED71E0CE010E945F03800FB4
:10072000911FDF91CF911F910F9108950F931F9308
:10073000CF93DF938C01EB01FC01808191810097C5
:10074000E1F06881798161157105A9F042815381D9
:100750002C813D814217530770F00E94ED0C8C8173
:100760009D81F801958384831D821C82DF91CF9146
:100770001F910F9108950E949E0B88819981F80125
:10078000918380838A819B81938382838C819D81E5
:1007900095838483198218821B821A82E5CFCF93B6
:1007A000DF93EC0188819981009711F00E949E0BE4
:1007B000198218821D821C821B821A82DF91CF91BE
:1007C0000895FC0180819181009711F00C949E0B9B
:1007D00008950F931F93CF93DF93EC018881998144
:1007E000009759F02A813B812617370730F081E0C6
:1007F000DF91CF911F910F9108958B016F5F7F4F14
:100800000E94270C009759F0998388831B830A83E1
:100810002C813D81232B59F7FC011082E8CF80E029
:10082000E7CFEF92FF920F931F93CF93DF93611562
:10083000710541F480E0DF91CF911F910F91FF90FE
:10084000EF90089541155105B1F07B01EC010C8149
:100850001D81040F151FB8010E94E903882351F37D
:10086000288139818C819D81B701820F931F0E945D
:10087000ED0C1D830C8381E0DECFCF93DF93EC0181
:10088000FB0101900020E9F73197AF01461B570BA0
:100890000E941104811103C0CE010E94CF03CE013A
:1008A000DF91CF910895CF93DF93EC01FB01448159
:1008B0005581608171810E941104811103C0CE01B4
:1008C0000E94CF03CE01DF91CF910895EF92FF9266
:1008D0000F931F93CF93DF93EC01198218821B8231
:1008E0001A821D821C828617970719F1FB0100816D
:1008F000118101151105E9F0E480F580B7010E942E
:10090000E903811109C0CE01DF91CF911F910F91B1
:10091000FF90EF900C94CF03FD82EC82B8018881A8
:100920009981DF91CF911F910F91FF90EF900C94DF
:10093000ED0CDF91CF911F910F91FF90EF900895F3
:10094000EF92FF920F931F93CF93DF93EC017B0104
:10095000198218821B821A821D821C82FB0101905F
:100960000020E9F731978F01061B170BB8010E9491
:10097000E903811109C0CE01DF91CF911F910F9141
:10098000FF90EF900C94CF031D830C83B7018881F7
:100990009981DF91CF911F910F91FF90EF900C946F
:1009A000ED0CCF93DF93CDB7DEB768970FB6F89411
:1009B000DEBF0FBECDBF6AE271E08CE593E00E941E
:1009C0006E0366E371E0CE010D960E94A00464E41C
:1009D00071E0CE0107960E94A00464E571E0CE01AB
:1009E00001960E94A004BE01695F7F4FCE0101966F
:1009F0000E9453046CE172E00E943D04BE01635FFB
:100A00007F4F0E9453046EE172E00E943D04BC01DE
:100A1000CE0143960E946604CE0101960E94E10336
:100A2000CE0107960E94E103CE010D960E94E103DC
:100A3000BE016D5E7F4F8CE593E00E94820360EA09
:100A40007FE080E090E00E94CF0186E592E00E9486
:100A5000F102882399F06FE571E08FEB92E00E943C
:100A60006E03CE0143960E94E10368960FB6F89498
:100A7000DEBF0FBECDBFDF91CF9108956AE671E072
:100A80008FEB92E00E946E030E94D104EACF1F9286
:100A90000F920FB60F9211242F933F934F935F93B2
:100AA0006F937F938F939F93AF93BF93EF93FF9336
:100AB0008FEB92E00E941B01FF91EF91BF91AF91EC
:100AC0009F918F917F916F915F914F913F912F9166
:100AD0000F900FBE0F901F9018951F920F920FB698
:100AE0000F9211242F938F939F93EF93FF93E09195
:100AF000CF02F091D0028081E091D502F091D60230
:100B000082FD1BC090818091D8028F5F8F732091EE
:100B1000D902821741F0E091D802F0E0E154FD4F94
:100B2000958F8093D802FF91EF919F918F912F9194
:100B30000F900FBE0F901F9018958081F4CF1F92D9
:100B40000F920FB60F9211242F933F938F939F9381
:100B5000AF93BF938091BB029091BC02A091BD0264
:100B6000B091BE023091B20223E0230F2D3758F529
:100B70000196A11DB11D2093B2028093BB029093F8
:100B8000BC02A093BD02B093BE028091B3029091CB
:100B9000B402A091B502B091B6020196A11DB11D9B
:100BA0008093B3029093B402A093B502B093B602BF
:100BB000BF91AF919F918F913F912F910F900FBE59
:100BC0000F901F90189526E8230F0296A11DB11DC6
:100BD000D2CF1F920F920FB60F9211242F933F93F3
:100BE0004F935F936F937F938F939F93AF93BF9335
:100BF000EF93FF93E091B902F091BA02309749F078
:100C0000A685B7858585968D91FF14C09C91892313
:100C1000A1F4FF91EF91BF91AF919F918F917F913F
:100C20006F915F914F913F912F910F900FBE0F9059
:100C30001F9018959C91892361F7A389B4899C9191
:100C40008589809589238C93868997890197F1F707
:100C5000608D718DA685B785558538E020E0CB0184
:100C60000197F1F7822F90E095958795282F4C9169
:100C7000452309F02068315091F7868D81FD20953C
:100C80008091B80290E001968F7399273091B70256
:100C9000381799F0A091B802B0E0AE58BD4F2C9330
:100CA0008093B802828D938D0197F1F7A389B4895F
:100CB0008C919589892B8C93ACCF868D8160868FA2
:100CC000F1CF90E0FC01E859FF4F2491FC01E2557F
:100CD000FF4F3491FC01E656FF4FE491EE23C9F03B
:100CE000222339F0233001F1A8F4213019F1223008
:100CF00029F1F0E0EE0FFF1FE057FF4FA591B491EF
:100D00008FB7F894EC91611126C030953E233C9347
:100D10008FBF08952730A9F02830C9F0243049F753
:100D2000809180008F7D03C0809180008F778093B9
:100D30008000DFCF84B58F7784BDDBCF84B58F7D16
:100D4000FBCF8091B0008F778093B000D2CF80919D
:100D5000B0008F7DF9CF3E2BDACF0F931F93CF9347
:100D6000DF931092C2021092C10288EE93E0A0E0DD
:100D7000B0E08093C3029093C402A093C502B093E5
:100D8000C6022AE031E03093C0022093BF0225EC76
:100D900030E03093CC022093CB0224EC30E030934F
:100DA000CE022093CD0220EC30E03093D00220938D
:100DB000CF0221EC30E03093D2022093D10222EC1A
:100DC00030E03093D4022093D30226EC30E030930D
:100DD000D6022093D5021092D8021092D902109216
:100DE000DA021092DB0210925F0310925E0380938E
:100DF000600390936103A0936203B09363038CE15B
:100E000091E090935D0380935C03109273031092C2
:100E1000720310927503109274031092770310926C
:100E20007603109279031092780360917A036E7FB3
:100E30006D7F60937A036695617081E068278AE030
:100E40000E94610648EB50E0FA01649184EA90E068
:100E5000FC012491222399F030E0220F331FF90185
:100E6000EA57FF4FA591B491F901E057FF4F259143
:100E700034912FB7F8943C91632B6C932FBFFA01F8
:100E8000449140936C03FC018491E82FF0E0EE0F55
:100E9000FF1FE057FF4F8591949190936E038093CD
:100EA0006D0307EB10E0F8012491C3EAD0E0FE01E6
:100EB00084918823C9F090E0880F991FFC01EA57BC
:100EC000FF4FA591B491FC01E057FF4F459154911C
:100ED0003FB7F8949C91822F809598239C93FA01B8
:100EE0009081892380833FBF80917A0381FD04C074
:100EF00061E089E00E94610689E080936803F8015F
:100F0000049100936903FE01C491EC2FF0E0EE0F11
:100F1000FF1FE458FF4F8591949190936B0380934A
:100F20006A03DF91CF911F910F910895CF93DF93C3
:100F3000CDB7DEB7CF55D1090FB6F894DEBF0FBEDF
:100F4000CDBF789484B5826084BD84B5816084BD52
:100F500085B5826085BD85B5816085BD80916E0057
:100F6000816080936E001092810080918100826088
:100F700080938100809181008160809381008091C5
:100F800080008160809380008091B10084608093B4
:100F9000B1008091B00081608093B00080917A00B0
:100FA000846080937A0080917A00826080937A00D6
:100FB00080917A00816080937A0080917A008068C5
:100FC00080937A001092C100E091CF02F091D0029C
:100FD00082E08083E091CB02F091CC021082E0911C
:100FE000CD02F091CE028FEC80831092D702E09177
:100FF000D302F091D40286E08083E091D102F09197
:10100000D202808180618083E091D102F091D2028E
:10101000808188608083E091D102F091D20280814A
:1010200080688083E091D102F091D20280818F7D2F
:1010300080831092770310927603109275031092BA
:10104000740310927303109272038FE190E09093F7
:1010500079038093780390916803963108F047C034
:1010600021E030E030937303209372032DE130E0F0
:1010700030937503209374032DE030E030937703B1
:10108000209376032091680084E0983048F031E0A6
:101090009E3008F430E081E001C0880F3A95EAF70D
:1010A000822B809368002DE630E0983050F02BE6DC
:1010B00030E09E3030F02CE630E0963110F030E039
:1010C00020E03093700320936F03292F30E0983095
:1010D00008F080C181E001C0880F9A95EAF78093FB
:1010E000710380917803909179030197F1F78091D2
:1010F000760390917703892B49F1E091B902F09141
:10110000BA0283E0EC35F80709F1309739F0A3898A
:10111000B4899C918589809589238C9380917A03E9
:101120008E7F80937A031092B8021092B7028CE5FA
:1011300093E09093BA028093B902E0916F03F0912B
:101140007003808190917103892B808361E871E045
:101150008CE593E00E946E0368EE73E080E090E01F
:101160000E94CF0186E592E00E94F102882331F0CF
:1011700068E871E08FEB92E00E946E030E94D10458
:101180008AE0C82ED12CE12CF12C65E971E0CE016A
:10119000845B9F4F0E94A00461EA71E0CE018E5AE9
:1011A0009F4F0E94A00464EA71E0CE01885A9F4FCD
:1011B0000E94A0046BED71E0CE018A5B9F4F0E94FC
:1011C000A00462EB71E0CE0101960E94A004BE0172
:1011D000645B7F4FCE0101960E94530467EB71E080
:1011E0000E943D0463EC71E00E943D04BE01685A18
:1011F0007F4F0E9453046AEC71E00E943D04BE01DF
:101200006E5A7F4F0E94530469ED71E00E943D04C5
:101210006CEC71E00E943D0466ED71E00E943D04BB
:1012200068ED71E00E943D046CED71E00E943D04A8
:10123000BC01CE01805C9F4F0E946604CE010196E6
:101240000E94E103BE01605C7F4FCE018E960E943A
:101250006604BE016E5A7F4FCE01C4960E9466049A
:10126000BE01685A7F4FCE01CA960E9466046BED9C
:1012700071E0CE0188960E94A0046CE072E0CE017D
:1012800001960E94A004BE01665C7F4FCE010196CC
:101290000E94530460E272E00E943D04BE016C5C57
:1012A0007F4F0E9453046BED71E00E943D04BC012E
:1012B0008CE593E00E948203CE0101960E94E10337
:1012C00086E592E00E94F102882331F063E272E049
:1012D0008FEB92E00E946E0368EE73E080E090E096
:1012E0000E94CF0168E372E0CE0182960E94A004C2
:1012F000BE016E5D7F4F8CE593E00E948F002AA9AE
:101300003BA950E040E019A28E010F5D1F4FCA01BA
:10131000B901A70196010E94C60A605DF8016293B7
:101320008F01211531054105510589F7309729F0C5
:10133000BF018CE593E00E945F0369ED71E08CE5ED
:1013400093E00E945F0364EF71E080E090E00E9410
:10135000CF0184E492E00E94F102882309F460C086
:1013600066E472E08FEB92E00E946E03BE01625D64
:101370007F4F8CE593E00E948F0081E592E00E9410
:10138000F102882309F44CC069E572E08FEB92E02A
:101390000E946E038CE593E00E947502892BD1F1C7
:1013A0006BED71E0CE0101960E94A0040E94AE0296
:1013B00097FD1DC06F968FAF6F97A0961FAEA09739
:1013C00041E050E0BE01625A7F4FCE0101960E947B
:1013D0001104ECCF9E3040F42850310981E001C067
:1013E000880F2A95EAF77BCE2E503109F7CFBE0140
:1013F0006F5F7F4FCE0188960E949603CE010196C3
:101400000E94E103BE01685D7F4F8FEB92E00E9476
:101410008203C0CF66E672E08CE593E00E946E0323
:10142000CE0182960E94E103BE01685D7F4FCE012E
:101430008A5B9F4F0E949603CE0188960E94E1032B
:10144000CE01CA960E94E103CE01C4960E94E10338
:10145000CE018E960E94E103CE01805C9F4F0E94D8
:10146000E103BE016A5B7F4F8FEB92E00E94820333
:10147000CE018A5B9F4F0E94E103CE01885A9F4FA5
:101480000E94E103CE018E5A9F4F0E94E103CE01DC
:10149000845B9F4F0E94E10368EE73E080E090E080
:1014A0000E94CF0180E090E0892B09F46ECE0E946B
:1014B0000701882309F469CE0E94000066CE8CE102
:1014C00091E090935D0380935C038091B9029091C9
:1014D000BA028C55934071F4E0916F03F091700360
:1014E0009081809171038095892380831092BA0244
:1014F0001092B90208952F923F924F925F926F928D
:101500007F928F929F92AF92BF92CF92DF92EF9293
:10151000FF920F931F93CF93DF93CDB7DEB7CA1B14
:10152000DB0B0FB6F894DEBF0FBECDBF09942A883F
:10153000398848885F846E847D848C849B84AA84E7
:10154000B984C884DF80EE80FD800C811B81AA8174
:10155000B981CE0FD11D0FB6F894DEBF0FBECDBF3F
:10156000ED01089597FB072E16F4009407D077FD40
:1015700009D00E94E80A07FC05D03EF490958195B9
:101580009F4F0895709561957F4F0895A1E21A2E9F
:10159000AA1BBB1BFD010DC0AA1FBB1FEE1FFF1F17
:1015A000A217B307E407F50720F0A21BB30BE40B67
:1015B000F50B661F771F881F991F1A9469F76095AE
:1015C0007095809590959B01AC01BD01CF01089568
:1015D000AA1BBB1B51E107C0AA1FBB1FA617B70759
:1015E00010F0A61BB70B881F991F5A95A9F7809575
:1015F0009095BC01CD010895EE0FFF1F0590F49169
:10160000E02D09940F931F93CF93DF9382309105C0
:1016100010F482E090E0E0917D03F0917E0330E0F1
:1016200020E0B0E0A0E0309799F42115310509F4ED
:101630004AC0281B390B24303105D8F58A819B819B
:101640006115710589F1FB0193838283FE0111C04D
:10165000408151810281138148175907E0F04817F2
:10166000590799F4109761F012960C9312971396FC
:101670001C933296CF01DF91CF911F910F91089566
:1016800000937D0310937E03F4CF2115310551F0B3
:101690004217530738F0A901DB019A01BD01DF01B0
:1016A000F801C1CFEF01F9CF90937E0380937D03C2
:1016B000CDCFFE01E20FF31F8193919322503109A8
:1016C00039832883D7CF20917B0330917C03232B50
:1016D00041F4209102013091030130937C03209367
:1016E0007B0320910001309101012115310541F466
:1016F0002DB73EB74091040150910501241B350BD5
:10170000E0917B03F0917C03E217F307A0F42E1B1A
:101710003F0B2817390778F0AC014E5F5F4F241755
:10172000350748F04E0F5F1F50937C0340937B03B7
:10173000819391939FCFF0E0E0E09CCFCF93DF9334
:101740000097E9F0FC01329713821282A0917D0389
:10175000B0917E03ED0130E020E01097A1F42081EC
:101760003181820F931F20917B0330917C032817D6
:10177000390709F061C0F0937C03E0937B03DF91AC
:10178000CF910895EA01CE17DF07E8F54A815B8122
:101790009E0141155105B1F7E901FB83EA834991A7
:1017A0005991C40FD51FEC17FD0761F48081918119
:1017B0000296840F951FE901998388838281938122
:1017C0009B838A83F0E0E0E012968D919C911397C1
:1017D0000097B9F52D913C911197CD010296820F9A
:1017E000931F20917B0330917C032817390739F62A
:1017F000309751F510927E0310927D03B0937C03D5
:10180000A0937B03BCCFD383C28340815181840FDB
:10181000951FC817D90761F44E5F5F4F8881998182
:10182000480F591F518340838A819B819383828310
:101830002115310509F0B0CFF0937E03E0937D03CD
:101840009ECFFD01DC01C0CF13821282D7CFB0E062
:10185000A0E0EDE2FCE00C947D0A8C01009751F4CD
:10186000CB010E94020B8C01C801CDB7DEB7E0E1CD
:101870000C94990AFC01E60FF71F9C0122503109D4
:10188000E217F30708F49DC0D901CD91DC911197BF
:10189000C617D70798F0C530D10530F3CE010497AD
:1018A0008617970708F3C61BD70B2297C193D193CE
:1018B0006D937C93CF010E949E0BD6CF5B01AC1A37
:1018C000BD0A4C018C0E9D1EA0917D03B0917E033C
:1018D000512C412CF12CE12C109731F580917B0398
:1018E00090917C038815990509F05CC0461657064F
:1018F00008F058C08091000190910101009741F4D7
:101900008DB79EB74091040150910501841B950B42
:10191000E817F90708F055C0F0937C03E0937B03C8
:10192000F90171836083A0CF8D919C9111971296DC
:101930006C90129713967C901397A815B90559F5DA
:101940006C0142E0C40ED11CCA14DB0420F1AC01CE
:101950004A195B09DA011296159780F06282738248
:1019600051834083D9016D937C93E114F10471F0AC
:10197000D7011396FC93EE93129776CF22968C0F95
:101980009D1FF90191838083F301EFCFF0937E03D4
:10199000E0937D0369CF4816590608F42C017D01B8
:1019A000D3019ACFCB010E94020B7C01009749F032
:1019B000AE01B8010E94E40CC8010E949E0B870191
:1019C00053CF10E000E050CFFB01DC0102C00190DA
:1019D0000D9241505040D8F70895FB01DC01019071
:1019E0000D920020E1F7089510E0C2E6D0E004C0B7
:1019F000FE010E94FC0A2196C336D107C9F7F8946C
:101A0000FFCF00007F038000000000003D019D002B
:101A1000CA008A01FB00D900ED0000000000190295
:101A20009D00EE028D0075028D02010241542B4390
:101A3000574D4F44453D3300332E31343135393223
:101A4000363533353900696E7465726E65745F6161
:101A500063636573730041542B43574A41503D22E1
:101A600000436F6E6E6563746564210043616E6E42
:101A70006F7420636F6E6E65637420746F20776976
:101A800066690041542B525354004D6F64756C6568
:101A9000205265736574002F696E6465782E6874D2
:101AA0006D6C003830003139322E3136382E3133FA
:101AB000372E3100474554200020485454502F31D0
:101AC0002E310D0A00486F73743A20003A004163CA
:101AD000636570743A202A002F002A0D0A00782DC1
:101AE0006170692D6B65793A20303562396339341C
:101AF000372D376265352D343635392D623631361E
:101B00002D626365323333386332326237004154B9
:101B10002B43495053544152543D22544350222C9C
:101B20002200222C0054435020636F6E6E65637454
:101B3000696F6E2072656164790041542B4349508E
:101B400053454E443D003E0053656E64696E672EFA
:101B50002E2E0053454E44204F4B005061636B6165
:101B600067652073656E740041542B434950434CA4
:041B70004F5345008A
:107E0000112484B714BE81FFF0D085E080938100F7
:107E100082E08093C00088E18093C10086E0809377
:107E2000C20080E18093C4008EE0C9D0259A86E02C
:107E300020E33CEF91E0309385002093840096BBD3
:107E4000B09BFECF1D9AA8958150A9F7CC24DD24C4
:107E500088248394B5E0AB2EA1E19A2EF3E0BF2EE7
:107E6000A2D0813461F49FD0082FAFD0023811F036
:107E7000013811F484E001C083E08DD089C08234E0
:107E800011F484E103C0853419F485E0A6D080C0E4
:107E9000853579F488D0E82EFF2485D0082F10E0AE
:107EA000102F00270E291F29000F111F8ED06801E7
:107EB0006FC0863521F484E090D080E0DECF843638
:107EC00009F040C070D06FD0082F6DD080E0C81688
:107ED00080E7D80618F4F601B7BEE895C0E0D1E017
:107EE00062D089930C17E1F7F0E0CF16F0E7DF06D8
:107EF00018F0F601B7BEE89568D007B600FCFDCFD4
:107F0000A601A0E0B1E02C9130E011968C91119780
:107F100090E0982F8827822B932B1296FA010C0160
:107F200087BEE89511244E5F5F4FF1E0A038BF0790
:107F300051F7F601A7BEE89507B600FCFDCF97BE46
:107F4000E89526C08437B1F42ED02DD0F82E2BD052
:107F50003CD0F601EF2C8F010F5F1F4F84911BD097
:107F6000EA94F801C1F70894C11CD11CFA94CF0C13
:107F7000D11C0EC0853739F428D08EE10CD085E9AC
:107F80000AD08FE07ACF813511F488E018D01DD067
:107F900080E101D065CF982F8091C00085FFFCCF94
:107FA0009093C60008958091C00087FFFCCF809118
:107FB000C00084FD01C0A8958091C6000895E0E648
:107FC000F0E098E1908380830895EDDF803219F02E
:107FD00088E0F5DFFFCF84E1DECF1F93182FE3DFCA
:107FE0001150E9F7F2DF1F91089580E0E8DFEE27F6
:047FF000FF270994CA
:027FFE00040479
:00000001FF
